{
  "contractName": "HealthChain",
  "abi": [
    {
      "constant": true,
      "inputs": [],
      "name": "clncRegCount",
      "outputs": [
        {
          "name": "",
          "type": "uint256"
        }
      ],
      "payable": false,
      "stateMutability": "view",
      "type": "function"
    },
    {
      "constant": true,
      "inputs": [
        {
          "name": "",
          "type": "uint256"
        }
      ],
      "name": "doctors",
      "outputs": [
        {
          "name": "doctor",
          "type": "address"
        },
        {
          "name": "doctorId",
          "type": "uint256"
        }
      ],
      "payable": false,
      "stateMutability": "view",
      "type": "function"
    },
    {
      "constant": true,
      "inputs": [
        {
          "name": "",
          "type": "uint256"
        }
      ],
      "name": "clinicRegistry",
      "outputs": [
        {
          "name": "patient",
          "type": "address"
        },
        {
          "name": "mrn",
          "type": "uint256"
        },
        {
          "name": "doctorId",
          "type": "uint256"
        }
      ],
      "payable": false,
      "stateMutability": "view",
      "type": "function"
    },
    {
      "inputs": [
        {
          "name": "_owners",
          "type": "address[]"
        }
      ],
      "payable": false,
      "stateMutability": "nonpayable",
      "type": "constructor"
    },
    {
      "constant": false,
      "inputs": [
        {
          "name": "_doctorId",
          "type": "uint256"
        },
        {
          "name": "_doctor",
          "type": "address"
        }
      ],
      "name": "deleteDoctor",
      "outputs": [],
      "payable": false,
      "stateMutability": "nonpayable",
      "type": "function"
    },
    {
      "constant": false,
      "inputs": [
        {
          "name": "_doctorId",
          "type": "uint256"
        }
      ],
      "name": "createDoctor",
      "outputs": [
        {
          "name": "",
          "type": "uint256"
        }
      ],
      "payable": false,
      "stateMutability": "nonpayable",
      "type": "function"
    },
    {
      "constant": true,
      "inputs": [],
      "name": "getTotalDoctors",
      "outputs": [
        {
          "name": "",
          "type": "uint256"
        }
      ],
      "payable": false,
      "stateMutability": "view",
      "type": "function"
    },
    {
      "constant": true,
      "inputs": [],
      "name": "getDoctors",
      "outputs": [
        {
          "components": [
            {
              "name": "doctor",
              "type": "address"
            },
            {
              "name": "doctorId",
              "type": "uint256"
            }
          ],
          "name": "",
          "type": "tuple[]"
        }
      ],
      "payable": false,
      "stateMutability": "view",
      "type": "function"
    },
    {
      "constant": false,
      "inputs": [
        {
          "name": "_doctorId",
          "type": "uint256"
        }
      ],
      "name": "enrolPatient",
      "outputs": [
        {
          "name": "",
          "type": "uint256"
        }
      ],
      "payable": false,
      "stateMutability": "nonpayable",
      "type": "function"
    },
    {
      "constant": true,
      "inputs": [
        {
          "name": "_doctorId",
          "type": "uint256"
        }
      ],
      "name": "isPatientOf",
      "outputs": [
        {
          "name": "",
          "type": "bool"
        }
      ],
      "payable": false,
      "stateMutability": "view",
      "type": "function"
    },
    {
      "constant": false,
      "inputs": [
        {
          "name": "patient",
          "type": "address"
        },
        {
          "name": "data",
          "type": "bytes"
        }
      ],
      "name": "submitMedRec",
      "outputs": [
        {
          "name": "medRecId",
          "type": "uint256"
        }
      ],
      "payable": false,
      "stateMutability": "nonpayable",
      "type": "function"
    }
  ],
  "bytecode": "0x60806040523480156200001157600080fd5b50604051620010b9380380620010b9833981018060405262000037919081019062000210565b6000600181905550620000496200013c565b600080600090505b8351811015620001325760648101915060405180604001604052808583815181106200007957fe5b602002602001015173ffffffffffffffffffffffffffffffffffffffff1681526020018381525092506000839080600181540180825580915050906001820390600052602060002090600202016000909192909190915060008201518160000160006101000a81548173ffffffffffffffffffffffffffffffffffffffff021916908373ffffffffffffffffffffffffffffffffffffffff16021790555060208201518160010155505050808060010191505062000051565b50505050620002fa565b6040518060400160405280600073ffffffffffffffffffffffffffffffffffffffff168152602001600081525090565b6000815190506200017d81620002e0565b92915050565b600082601f8301126200019557600080fd5b8151620001ac620001a68262000283565b62000255565b91508181835260208401935060208101905083856020840282011115620001d257600080fd5b60005b83811015620002065781620001eb88826200016c565b845260208401935060208301925050600181019050620001d5565b5050505092915050565b6000602082840312156200022357600080fd5b600082015167ffffffffffffffff8111156200023e57600080fd5b6200024c8482850162000183565b91505092915050565b6000604051905081810181811067ffffffffffffffff821117156200027957600080fd5b8060405250919050565b600067ffffffffffffffff8211156200029b57600080fd5b602082029050602081019050919050565b6000620002b982620002c0565b9050919050565b600073ffffffffffffffffffffffffffffffffffffffff82169050919050565b620002eb81620002ac565b8114620002f757600080fd5b50565b610daf806200030a6000396000f3fe608060405234801561001057600080fd5b506004361061009e5760003560e01c80636efb1b84116100665780636efb1b841461015b578063726c3a991461018c578063b13d5d94146101bc578063c264072d146101da578063dd0e94d31461020a5761009e565b806312c0fd89146100a35780632ce5984e146100bf57806334252919146100dd57806345e2a4d91461010d5780636bfae1e51461013d575b600080fd5b6100bd60048036036100b89190810190610a7d565b61023c565b005b6100c7610454565b6040516100d49190610c46565b60405180910390f35b6100f760048036036100f29190810190610a54565b61045a565b6040516101049190610c46565b60405180910390f35b61012760048036036101229190810190610a54565b610521565b6040516101349190610c46565b60405180910390f35b6101456106a0565b6040516101529190610c46565b60405180910390f35b61017560048036036101709190810190610a54565b6106ac565b604051610183929190610ba9565b60405180910390f35b6101a660048036036101a19190810190610a00565b6106fd565b6040516101b39190610c46565b60405180910390f35b6101c4610705565b6040516101d19190610c09565b60405180910390f35b6101f460048036036101ef9190810190610a54565b6107c4565b6040516102019190610c2b565b60405180910390f35b610224600480360361021f9190810190610a54565b610888565b60405161023393929190610bd2565b60405180910390f35b60008090505b60008054905081101561044f578173ffffffffffffffffffffffffffffffffffffffff166000828154811061027357fe5b906000526020600020906002020160000160009054906101000a900473ffffffffffffffffffffffffffffffffffffffff1673ffffffffffffffffffffffffffffffffffffffff161480156102e5575082600082815481106102d157fe5b906000526020600020906002020160010154145b15610442576000600160008054905003815481106102ff57fe5b906000526020600020906002020160000160009054906101000a900473ffffffffffffffffffffffffffffffffffffffff166000828154811061033e57fe5b906000526020600020906002020160000160006101000a81548173ffffffffffffffffffffffffffffffffffffffff021916908373ffffffffffffffffffffffffffffffffffffffff1602179055506000600160008054905003815481106103a257fe5b906000526020600020906002020160010154600082815481106103c157fe5b9060005260206000209060020201600101819055506000600160008054905003815481106103eb57fe5b9060005260206000209060020201600080820160006101000a81549073ffffffffffffffffffffffffffffffffffffffff021916905560018201600090555050600080548091906001900361044091906108d2565b505b8080600101915050610242565b505050565b60015481565b6000610464610904565b60405180604001604052803373ffffffffffffffffffffffffffffffffffffffff1681526020018481525090506000819080600181540180825580915050906001820390600052602060002090600202016000909192909190915060008201518160000160006101000a81548173ffffffffffffffffffffffffffffffffffffffff021916908373ffffffffffffffffffffffffffffffffffffffff16021790555060208201518160010155505050600080549050915050919050565b600080600090506000600154905060008090505b818110156105da573373ffffffffffffffffffffffffffffffffffffffff166002600083815260200190815260200160002060000160009054906101000a900473ffffffffffffffffffffffffffffffffffffffff1673ffffffffffffffffffffffffffffffffffffffff161480156105c35750846002600083815260200190815260200160002060020154145b156105cd57600192505b8080600101915050610535565b50816106965760405180606001604052803373ffffffffffffffffffffffffffffffffffffffff168152602001600183018152602001858152506002600083815260200190815260200160002060008201518160000160006101000a81548173ffffffffffffffffffffffffffffffffffffffff021916908373ffffffffffffffffffffffffffffffffffffffff1602179055506020820151816001015560408201518160020155905050600180600082825401925050819055505b8392505050919050565b60008080549050905090565b600081815481106106b957fe5b90600052602060002090600202016000915090508060000160009054906101000a900473ffffffffffffffffffffffffffffffffffffffff16908060010154905082565b600092915050565b60606000805480602002602001604051908101604052809291908181526020016000905b828210156107bb57838290600052602060002090600202016040518060400160405290816000820160009054906101000a900473ffffffffffffffffffffffffffffffffffffffff1673ffffffffffffffffffffffffffffffffffffffff1673ffffffffffffffffffffffffffffffffffffffff16815260200160018201548152505081526020019060010190610729565b50505050905090565b600080600090506000600154905060008090505b8181101561087d573373ffffffffffffffffffffffffffffffffffffffff166002600083815260200190815260200160002060000160009054906101000a900473ffffffffffffffffffffffffffffffffffffffff1673ffffffffffffffffffffffffffffffffffffffff161480156108665750846002600083815260200190815260200160002060020154145b1561087057600192505b80806001019150506107d8565b508192505050919050565b60026020528060005260406000206000915090508060000160009054906101000a900473ffffffffffffffffffffffffffffffffffffffff16908060010154908060020154905083565b8154818355818111156108ff576002028160020283600052602060002091820191016108fe9190610934565b5b505050565b6040518060400160405280600073ffffffffffffffffffffffffffffffffffffffff168152602001600081525090565b61097f91905b8082111561097b57600080820160006101000a81549073ffffffffffffffffffffffffffffffffffffffff021916905560018201600090555060020161093a565b5090565b90565b60008135905061099181610d47565b92915050565b600082601f8301126109a857600080fd5b81356109bb6109b682610c8e565b610c61565b915080825260208301602083018583830111156109d757600080fd5b6109e2838284610d38565b50505092915050565b6000813590506109fa81610d5e565b92915050565b60008060408385031215610a1357600080fd5b6000610a2185828601610982565b925050602083013567ffffffffffffffff811115610a3e57600080fd5b610a4a85828601610997565b9150509250929050565b600060208284031215610a6657600080fd5b6000610a74848285016109eb565b91505092915050565b60008060408385031215610a9057600080fd5b6000610a9e858286016109eb565b9250506020610aaf85828601610982565b9150509250929050565b6000610ac58383610b5c565b60408301905092915050565b610ada81610cf0565b82525050565b610ae981610cf0565b82525050565b6000610afa82610cc7565b610b048185610cdf565b9350610b0f83610cba565b8060005b83811015610b40578151610b278882610ab9565b9750610b3283610cd2565b925050600181019050610b13565b5085935050505092915050565b610b5681610d02565b82525050565b604082016000820151610b726000850182610ad1565b506020820151610b856020850182610b8b565b50505050565b610b9481610d2e565b82525050565b610ba381610d2e565b82525050565b6000604082019050610bbe6000830185610ae0565b610bcb6020830184610b9a565b9392505050565b6000606082019050610be76000830186610ae0565b610bf46020830185610b9a565b610c016040830184610b9a565b949350505050565b60006020820190508181036000830152610c238184610aef565b905092915050565b6000602082019050610c406000830184610b4d565b92915050565b6000602082019050610c5b6000830184610b9a565b92915050565b6000604051905081810181811067ffffffffffffffff82111715610c8457600080fd5b8060405250919050565b600067ffffffffffffffff821115610ca557600080fd5b601f19601f8301169050602081019050919050565b6000602082019050919050565b600081519050919050565b6000602082019050919050565b600082825260208201905092915050565b6000610cfb82610d0e565b9050919050565b60008115159050919050565b600073ffffffffffffffffffffffffffffffffffffffff82169050919050565b6000819050919050565b82818337600083830152505050565b610d5081610cf0565b8114610d5b57600080fd5b50565b610d6781610d2e565b8114610d7257600080fd5b5056fea265627a7a723058200b646707f61522f8b1a964629c4e2d95474296760a5128e1db701646bdd453706c6578706572696d656e74616cf50037",
  "source": "pragma solidity ^0.5.0;\npragma experimental ABIEncoderV2;\n\ncontract HealthChain {\n\n    struct doctor {\n        address doctor;\n        uint doctorId;\n    }\n    \n    doctor[] public doctors;\n    // mapping (uint => doctor) public doctors; \n    \n    struct patientRegister {\n      address patient;\n      uint mrn;\n      uint doctorId;\n    }\n    \n    // uint public doctorCount;\n    uint public clncRegCount;\n    mapping (uint => patientRegister) public clinicRegistry;\n    \n    // modifier requiring that patient address cannot equal to \n    // a doctor's with which he/she is registering\n\n\n    constructor(address[] memory _owners) public {\n        clncRegCount = 0;\n        // doctorCount = 0;\n\n        // To have a couple of doctors created to start\n        // \n        doctor memory inputDoctor;\n        uint inputDocId;\n        for (uint i=0; i<_owners.length; i++) \n        {\n            inputDocId = i+100;\n            inputDoctor = doctor(_owners[i], inputDocId);\n            doctors.push(inputDoctor);\n        }\n\n    }\n\n    function deleteDoctor(uint _doctorId, address _doctor) \n        public \n    {\n\n        for (uint i=0; i<doctors.length; i++) {\n            if ((doctors[i].doctor == _doctor) \n               && (doctors[i].doctorId == _doctorId)) {\n                doctors[i].doctor = doctors[doctors.length-1].doctor;\n                doctors[i].doctorId = doctors[doctors.length-1].doctorId;\n                delete doctors[doctors.length-1];\n                doctors.length--;\n            } \n        }\n    }\n    \n    function createDoctor(uint _doctorId) \n        public\n        returns (uint)\n    {\n        doctor memory newDoctor = doctor(msg.sender, _doctorId);\n        doctors.push(newDoctor);\n\n        return doctors.length;\n    }\n    \n    function getTotalDoctors() \n        public view\n        returns (uint) \n    {\n        return doctors.length;\n        // return doctorCount;\n    }\n\n    function getDoctors()\n        public view\n        // returns (doctor memory)         \n        returns (doctor[] memory) \n    {\n        //uint i = doctorCount-1;\n        //return doctors[i];\n        return doctors;\n    }\n    \n    \n    function enrolPatient(uint _doctorId) public returns (uint)\n    {\n        bool foundRegRec = false;\n        uint totalRegRec = clncRegCount;\n        for (uint i=0; i<totalRegRec; i++) {\n            if ((clinicRegistry[i].patient == msg.sender) \n               && (clinicRegistry[i].doctorId == _doctorId))\n                foundRegRec = true;\n        }        \n\n        if (!foundRegRec) {\n            clinicRegistry[totalRegRec] = patientRegister({\n                patient: msg.sender,\n                mrn: totalRegRec+1,\n                doctorId: _doctorId\n            });\n            clncRegCount += 1;\n        }\n        \n        return _doctorId;\n    }\n    \n    function isPatientOf(uint _doctorId) \n        public view\n        returns (bool)\n    {\n        bool foundRegRec = false;\n        uint totalRegRec = clncRegCount;\n        for (uint i=0; i<totalRegRec; i++) {\n            if ((clinicRegistry[i].patient == msg.sender) \n               && (clinicRegistry[i].doctorId == _doctorId))\n                foundRegRec = true;\n        }        \n\n        return (foundRegRec);        \n    }\n    \n    function submitMedRec(address patient, bytes memory data) \n        public \n        returns (uint medRecId) \n    {\n           \n    }\n    \n}",
  "sourcePath": "/Users/bill8575/Work/Dev/Ethereum/truffle/health-chain/contracts/HealthChain.sol",
  "compiler": {
    "name": "solc",
    "version": "0.5.8+commit.23d335f2.Emscripten.clang"
  },
  "schemaVersion": "3.0.11",
  "updatedAt": "2019-07-28T15:42:06.405Z",
  "devdoc": {
    "methods": {}
  },
  "userdoc": {
    "methods": {}
  }
}